:020000040800F2
:1000000078060020AD010008892700088127000834
:100010008527000899070008692A000800000000E9
:100020000000000000000000000000009127000810
:100030009D070008000000008D2700089527000894
:10004000C7010008C7010008C7010008C701000870
:10005000C7010008C7010008C7010008C701000860
:10006000C7010008C7010008C7010008C701000850
:10007000C7010008C7010008C7010008C701000840
:10008000C7010008C70100088D0700080000000034
:10009000000000000000000000000000A1070008B0
:1000A000C7010008C7010008C7010008C701000810
:1000B000C7010008C7010008C7010008C701000800
:1000C000C7010008C7010008C7010008C7010008F0
:1000D000C7010008452A0008512A00080000000056
:1000E000C7010008C7010008C701000800000000A0
:1000F000000000000000000000000000C701000830
:1001000000000000C7010008C7010008C70100087F
:1001100000000000000000000000000000000000DF
:10012000C7010008C7010008C7010008C70100088F
:10013000C7010008000000000000000000000000EF
:10014000000000000000000000000000C7010008DF
:10015000C7010008C7010008C70100085D2A0008A0
:10016000C7010008C70100080000000000000000EF
:10017000000000000000000000000000000000007F
:1001800000000000C701000800000000000000009F
:10019000C7010008C7010008DFF80CD000F06EFAB4
:1001A000004800476D2A000878060020064880476E
:1001B00006480047FEE7FEE7FEE7FEE7FEE7FEE74C
:1001C000FEE7FEE7FEE7FEE73D280008990100088C
:1001D0002DE9F05F0546002092469B46884606467C
:1001E000814640241BE0284641464746224600F00F
:1001F0007CF853465A46C01A914110D3114618460E
:10020000224600F063F82D1A67EB01084F4622469C
:100210000120002100F05AF817EB00094E41201E82
:10022000A4F10104DFDC484631462A464346BDE8D6
:10023000F09F40EA01039B0703D009E008C9121FA1
:1002400008C0042AFAD203E011F8013B00F8013B90
:10025000521EF9D27047D2B201E000F8012B491EBC
:10026000FBD270470022F6E710B513460A46044653
:100270001946FFF7F0FF204610BD00F0004230F0B5
:1002800000400AD0C10D01F56071C0F3160042EACA
:100290000151C208400711437047002001467047D2
:1002A00030B50B46014600202022012409E021FA46
:1002B00002F59D4205D303FA02F5491B04FA02F543
:1002C0002844151EA2F10102F1DC30BD202A04DB16
:1002D000203A00FA02F1002070479140C2F1200359
:1002E00020FA03F3194390407047202A04DB203A98
:1002F00021FA02F00021704721FA02F3D040C2F146
:10030000200291400843194670472DE9FE4F804670
:1003100081EA0300C00F0C46009021F0004123F059
:100320000045B8EB0200A94105D24046214690465F
:100330001C460B46024623F00040104347D0270DD1
:10034000C7F30A00C3F30A510290401A01904028F3
:100350006BDAC3F3130040F4801B0098924620B17F
:100360000023D2EB030A63EB0B0B01985946C0F153
:1003700040025046FFF7AAFF06460D465046594632
:10038000019A00F093F910EB08006141002487EA1C
:10039000115284EAE7731A4340D0009A62B3019A7B
:1003A000012A4FEA075215DC001B61EB02014FF0F6
:1003B000004202EA0752CDE90042001C41F58011DB
:1003C00032462B4600F093F903B0BDE8F08F40466B
:1003D0002146F9E7001B61EB0201001C41F5801387
:1003E00000185B412018A2F5001747EB030140EA13
:1003F000D570B6196D4111E06D084FEA360645EA31
:10040000C0754FEA0752001B61EB0201001C41F569
:10041000801149084FEA30000019514132462B46FD
:1004200003B0BDE8F04F00F053B90098012240003E
:100430000023D0EB020263EBE073009821464FEA01
:10044000E074B8EB000061EB0401E9E783F00043DE
:100450005BE781F0004158E72DE9FE4F81EA030494
:1004600004F0004421F0004100944FF0000B23F011
:10047000004350EA01045ED052EA03045BD0C3F3A8
:100480000A54C1F30A552C44A4F2F3340194A0FB9E
:100490000254C1F3130141F48011C3F3130343F475
:1004A000801301FB024400FB034E840A970A44EACE
:1004B000815447EA8357A4FB076802958D0A05FB20
:1004C00007854FEA932C04FB0C542705029D4FEA45
:1004D000065847EA1637B5EB08056EEB070C870E92
:1004E000920E47EA811742EA8312A7FB0201B6EB9C
:1004F0000B0164EB00042B0D43EA0C335E1844EB54
:100500001C50DA465146E7FB0201C5F313044FEADB
:100510000B3343EA14534FEA0432019C43EA0603C7
:10052000A4F10C040294009CCDE900B400F0DFF8C3
:1005300003B0BDE8F08F00200146F9E72DE9F04D4A
:1005400081EA030404F0004B21F0004514464FF00B
:10055000000A23F0004150EA050220D054EA0102CB
:100560001DD0C5F30A570246C5F31303C1F31300A8
:10057000C1F30A5640F4801543F48013A7EB060834
:10058000101BD64608F2FD3873EB050002D308F1C4
:10059000010801E092185B41B8F1000F03DA002076
:1005A0000146BDE8F08D00204FF4801106468446D8
:1005B0000EE0171B73EB050705D3121B63EB050356
:1005C00006434CEA010C49084FEA300092185B419F
:1005D00050EA0107EDD152EA030012D082EA04008A
:1005E00083EA0501084305D0101BAB4106D2012266
:1005F000002306E000224FF0004302E06FF001020A
:1006000053101AEB06004CEB085110EB0A0041EBBB
:100610000B01BDE8F04D00F05BB8C1F30A52C1F325
:10062000130140F2FF3341F480119A4202DA0020B4
:100630000146704740F233439A42A2F2334202DC51
:100640005242FFF752BEFFF741BE000030B5041E14
:1006500071F1000404DB4FF00044404264EB0101FF
:10066000141E73F1000405DB1C464FF00043524298
:1006700063EB0403994208BF904230BD1CB50948A2
:100680000090094801900546009C06E0E06840F0B3
:10069000010394E8070098471034AC42F6D3FFF703
:1006A0007FFD0000A83A0008C83A0008202A06DBAF
:1006B000CB17203A41FA02F043EAE07306E041FA30
:1006C00002F3D040C2F1200291400843194670471E
:1006D00010B5141E73F1000408DA401C41F100014A
:1006E00092185B411A4301D120F0010010BD2DE9A1
:1006F000F04D92469B4611B1B1FA81F202E0B0FA98
:1007000080F220329046FFF7E1FD04460F4640EAB2
:100710000A0041EA0B0153465A46084313D01146DA
:1007200053EA010019D0C8F140025046FFF7DDFD41
:1007300005460E46504659464246FFF7C7FD084358
:1007400005D0012004E020463946BDE8F08D0020A8
:10075000054346EAE0762C4337430A986305E40AEA
:10076000A0EB08000022FD0A44EA47540A3002D5F3
:1007700000200146E9E7010510196941DDE9084556
:1007800000196941BDE8F04DA2E7000040F25010A9
:10079000C2F2000000F09EB9FEE7000070470000C2
:1007A000402000F05BBD000090F83C20012A04BF0F
:1007B00002207047F0B5D1F800E001221FFA8EF751
:1007C0007B0080F83C200EEB4E0413FA8EF31022CF
:1007D000BEF1090F88BFA3F11E0488BF0C22036875
:1007E0004FF0070C9E580CFA04F526EA05069E50B9
:1007F0008E689D5806FA04F646EA05069E509A6BE6
:1008000098BF774622F440129A63D1F804C00A696F
:1008100000258C69CFF6F0759E6B05EB0255ACEBAD
:100820000202354303329D63D5B2AD0055FA82F220
:100830001F259E6B954026EA05059D639D6B07FA73
:1008400002F22A439A639A68012522F470229A6080
:100850009A68C0F20F05AC4202D122F4401208E0BF
:1008600022439A609A6822F440129A60CA699C688E
:1008700022439A600A7D4C7D5D68002C25F48065DA
:1008800018BF05F580655D605C68002A24F480541B
:10089000ACF101024FF0200618BF04F580545C60F3
:1008A0001427032A38BF07EB82069A5940F6FF77D0
:1008B000BA439A51CA689F5942F20431C4F2010105
:1008C0003A43A1F54177BB429A5105D0002180F807
:1008D0003C100020F0BD00BF1222C1F2000296457C
:1008E00005D0BEF1120F05D0BEF1110FEED14FF4BD
:1008F000000201E04FF480020B681A430A600021F5
:1009000080F83C100020F0BD70470000F0B581B0C9
:100910000022009290F83C20012A03D1022001B06D
:10092000F0BD00BF0F6801231FFA87FC80F83C3040
:100930004FEA4C0307EB470213FA87F31024092F01
:1009400088BFA3F11E0288BF0C2403684FF0070E76
:100950001E590EFA02F5AE431E518E681D5906FA55
:1009600002F22A431A514968062907D801EB81018E
:100970004A1F194651F8345F0FE000BF0C2901EB04
:10098000810105D8A1F12302194651F8305F04E036
:10099000A1F14102194651F82C5F1F26964025EA25
:1009A00006060E600CFA02FE42F2043C0A68C4F22B
:1009B000010CACF5417642EA0E02B3420A6005D062
:1009C000002180F83C10002001B0F0BD1221112F51
:1009D000C1F2000118BF8F423AD1DCF800208F42EB
:1009E00022F48002CCF80020DCF8002042F400025F
:1009F000CCF80020E4D140F21401C2F200010968F1
:100A00004DF68362C4F21B32A1FB0212910C01EB82
:100A100081014900009100990029D1D00099013944
:100A2000009100990029CBD00099013900910099DB
:100A30000029C5D000990139009100990029BFD043
:100A400000990139009100990029E7D1B8E700BF6A
:100A5000122FB5D1DCF8001021F40001CCF8001001
:100A6000DCF8001041F48001CCF80010A8E7000089
:100A700040F25011C2F20001884218BF704780B5A1
:100A800040F25010C2F2000000F020F840F21801CD
:100A9000C2F200010881C8690130C861BDE8804028
:100AA0007047000010B540F25014C2F20004A0429A
:100AB00018BF10BD20686FF020010160204600F0D3
:100AC00027FA2046BDE8104000F08EB90068C06CDF
:100AD0007047000070B50446006806684568B107B5
:100AE00017D515F0200114D0216CC90603D4216C50
:100AF00041F400712164816811F0405F02D1217ED0
:100B0000002969D02046FFF7B3FF20686FF012017B
:100B10000160710714D515F0800111D0216CC90650
:100B200003D4216C41F400512164816811F4401F09
:100B300030D02046FFF7E8FE20686FF00C0101601E
:100B4000F10706D015F040011CBF01685FEAC171D2
:100B500012D1B1060FD515F0806108BF70BD616C70
:100B60006FF0200541F00201616405602046FFF747
:100B700099FF2068056070BD206C40F480302064CF
:100B8000204600F0F1F820686FF001010160B10625
:100B9000E1D4F0E7816B11F4401F02D08168490570
:100BA000C7D441684905C4D4816811F0405FC0D101
:100BB000217E0029BDD1416821F080014160206C77
:100BC00020F480502064206CC005B2D4206C40F02A
:100BD00001002064ADE700BFC16A11F4700F03D0BB
:100BE000816849053FF58EAF416821F020014160E1
:100BF000206C20F480702064206CC0043FF582AF2C
:100C0000206C40F0010020647CE70000002804BF55
:100C10000120704710B5016C00293DD0016CC90658
:100C200045D4016C41F202129143023142F2043286
:100C30000164C4F20102116821F4403111601368AB
:100C400090E812102343D0F810E013604A680124A2
:100C500022F480724A604A68C0F6007442EA0E22AA
:100C60004A604A6822F040724A604A6842EA0C02CE
:100C70004A608A6822F400628A60C2688B681A43FC
:100C80008A60826A8B68A24223F070638B608B68F3
:100C900010D123F0405216E0044600F067F82046D9
:100CA0000021616484F83C10016CC906B9D50121AA
:100CB00053E000BF1A438A608A6822F040528A607B
:100CC000C26A8B681A438A608A6822F002028A60CC
:100CD0008A68037E90F8204042EA43028A604A68AC
:100CE00084B142F400624A604A684EF2000322F482
:100CF00060424A60426ACFF6FF734C6803EB4232AF
:100D0000224301E022F400624A60CA6A40F2000C09
:100D100022F47002CA62C3694269CFF6F07CCC6AE1
:100D20000CEB03532343CB628B6823F400738B607B
:100D300090F830308C6844EA43238B608B6823F44E
:100D400080638B608B6843EA82228A600021416461
:100D5000026C012363F301020264002280F83C204C
:100D6000BDE81040084670477047000080B586B067
:100D700042F200010068C4F201010022884205929B
:100D8000CDE903220292019202D006B080BD00BFDD
:100D900043F630000092C4F20200436943F48073CA
:100DA0004361436903F480730093009B00920368DE
:100DB00043F001030360006800F001000090009818
:100DC000012001900320CDE9020201F5604001A954
:100DD00000F050FA12200021002200F0C9FB12207E
:100DE00000F0B4FB06B080BD80B581B00021009159
:100DF00090F83C10012903D1022001B080BD00BF52
:100E0000D0F800E0012180F83C10714651F8083F0D
:100E1000DB072AD10B684DF6836243F001030B60B8
:100E200040F21403C2F200031B68C4F21B32A3FB9E
:100E300002239A0C02EB42020092009AAAB100BF70
:100E4000009A013A0092009A7AB1009A013A00920F
:100E5000009A52B1009A013A0092009A2AB1009A7F
:100E6000013A0092009A002AEAD10A68036CD2077C
:100E70000CD143F01001016400F1440101200A6823
:100E800010430860002001B080BD00BF40F2017235
:100E900023EA020202F580720264DEF804205205A1
:100EA00004D5026C012363F30D320264026C4FF02F
:100EB000000C0023D20444BF426C22F006034364BA
:100EC00080F83CC06FF02200CEF80000DEF804206D
:100ED00042F2000042F0806242F02002C4F20100BF
:100EE000CEF80420D0F80423D20609D086450BD1D1
:100EF000806810F0405F07D14FF08040BFE700BF2F
:100F0000086810F0405FF7D0002001B080BD0000FD
:100F100090F83C10012904BF0220704701688A68DC
:100F200022F001028A608A68D2070CD14A684FF623
:100F3000DF73CFF6FF331A404A60016C41F20112B1
:100F4000914301310164002180F83C10002070477A
:100F500070B5866D044600F071FA94F835100229D8
:100F600028D105462068216C026822F01602026032
:100F7000426922F08002426109B9A16C19B101688D
:100F800021F008010160016821F00101016000BF4A
:100F900020680068C00715D000F050FA401B0628F2
:100FA000F6D320206065032084F83500002184F802
:100FB000341070BD802060650120002184F8341059
:100FC00070BD00BFE06D3F2101FA00F0B06001206C
:100FD00084F835000020002184F8341070BD000032
:100FE00090F83510022909D1052180F835100068E4
:100FF000016821F0010101600020704780214165F6
:1010000001207047B0B5044600F018FA054640F2DA
:101010000C00C2F200000078611C18BF044400BF3D
:1010200000F00CFA401BA042FAD3B0BD2DE9F04FFE
:1010300082B000F13E4241F20007894602F1FF72A0
:10104000C4F2020707214FEAB223B84208BF0421C5
:1010500000F12007002404254FF0020B0097042B19
:1010600038BF4FEAB221019126E000BF0168032298
:1010700002FA0BF2914301606FF00301009F01EA55
:10108000540305F01C0CFE580F2101FA0CF126EA5E
:101090000101F950C168D1469143C160416821EA1C
:1010A0000E01416081689143816002340835102C43
:1010B0000BF1040B00F0A080012101FA04F818EAFA
:1010C000090A59D043F60041C4F201012F1FA1F5CE
:1010D0007E7C24F0030207F0080E0F215CF802303A
:1010E00001FA0EF20199134001FA0EF6B34224D12F
:1010F00043F6004EC4F2010EDEF8003043F60C4118
:1011000023EA0A03CEF80030DEF80430C4F201010D
:1011100023EA0A03CEF804300B68A60823EA0A0380
:101120000B60DEF8083023EA0A03CEF808305CF8DA
:10113000263023EA02024CF82620ABF102020368B3
:10114000032101FA02F29343036007F0180C6FF0D9
:101150000301009F01EA5406B9590F2303FA0CF367
:101160009943B951C1689143C160416821EA0801BE
:101170004160816891438160022101FA04FE1EEA08
:10118000090292D043F60041C4F20101CA46A1F51A
:101190007E7924F0030105F00C060F2359F80110A5
:1011A00003FA06FC019B01EA0C0103FA06F6B142C0
:1011B0007FF45CAF43F60048C4F20108D8F8001091
:1011C00043F60C469143C8F80010D8F80410C4F256
:1011D00001069143C8F80410316891433160D8F892
:1011E0000810A6089143C8F8081059F8261021EAFB
:1011F0000C0149F8261039E702B0BDE8F08F000075
:1012000070B5402810D100F019F940F21805C2F26B
:101210000005296940F6B832411A914238BF70BDC5
:10122000E968411A502901D270BD00BF0024C4F200
:1012300002040646E8602046402100F0EBF8013841
:10124000B0FA80F04FEA5010287008BF2E62204696
:101250002021BDE8704000F0E3B8000043F61441DF
:10126000C4F201010A68024214BF08607047FFF728
:10127000C7BF00002DE9F04F83B000F1200200F15C
:101280003E4741F20005009207F1FF77C4F20205E4
:1012900007224FEAB726A84208BF042200254FF0D4
:1012A00000084FF00009042E38BF4FEAB722019220
:1012B0000AE000BF09F1010908F10208B9F1100FB5
:1012C00005F1040500F0A2800F68012202FA09FE70
:1012D00017EA0E0AEED0D1F804C003220CF003077F
:1012E0007E1E02FA08F4012E6FEA040B12D88468FD
:1012F000CE6804EA0B0406FA08F6344384604468B6
:1013000024EA0E06CCF3001404FA09F426434660DE
:1013100004E000BF032F01D103271EE0C6688C68DC
:1013200006EA0B0604FA08F42643022FC66014D11D
:101330006FF00302009E02EA590756F807C005F055
:101340001C040F220B69A2402CEA0202A3401A439C
:10135000F251D1F804C00CF00307026807FA08F351
:1013600002EA0B021A431CF4403F0260A2D00022A2
:1013700043F644030292C4F202031A6843F600449F
:1013800042F480421A601A68C4F2010402F48042F6
:101390000292029A29F003024FF6084C2244CFF63B
:1013A000FF7C52F80C3005F00C070F26BE40B3430B
:1013B000019E06FA07F73B4342F80C30A2684B68DF
:1013C00042EA0A0743F60C4CDE0258BF22EA0A073B
:1013D000A760C4F2010CDCF800209E0242EA0A0772
:1013E00058BF22EA0A07CCF8007062689E0342EAFE
:1013F0000A0758BF22EA0A0767602268DB0342EA4D
:101400000A0758BF22EA0A07276053E703B0BDE87E
:10141000F08F00000069084018BF012070470000ED
:10142000426902EA0103914341EA03418161704745
:10143000002A08BF090481617047000040F2702053
:10144000C2F200000068704740F20C0040F27021C8
:10145000C2F20000C2F2000100780A68104408607D
:101460007047000080B543F60040C4F202000168F6
:1014700041F400710160016841F48061016001681C
:1014800041F480710160032000F09EF8002000F01C
:1014900005F800F027F8002080BD000070B540F28C
:1014A0000C06C2F2000640F214013278C2F20001CA
:1014B0004FF47A730968B3FBF2F20446B1FBF2F120
:1014C000084600F079FB0F2C4FF0010508D838B919
:1014D0004FF0FF3021460022002500F049F87460EB
:1014E000284670BD82B0002043F640010190C4F24E
:1014F00002014A6842F480424A604A6802F480422B
:101500000192019A0090086840F0805008600868D5
:1015100000F0805000900098072002B000F054B80E
:10152000002848BF704700F01F01012202FA01F1B4
:101530001C2202EAD0004EF28012CEF2000281504C
:10154000BFF34F8FBFF36F8F70470000002848BF75
:10155000704700F01F01012202FA01F11C2202EA89
:10156000D0004EF20012CEF200028150704700000F
:1015700010B54EF60C5CCEF2000CDCF80030C3F374
:10158000022E8EF00704042C28BF0424BEF10303AE
:101590004FF0FF3E0EFA04F438BF0023A1439940F8
:1015A0000EFA03F39A43114300F00F0200F1604377
:1015B0000901043A03F564436244002848BF02F17C
:1015C0000C03197010BD00004EF60C51CEF2000154
:1015D0000A684FF6FF031A4060F30A2242F0806067
:1015E00040F0FD7008607047002804BF012070477C
:1015F0002DE9F04143F60808C4F202080446D8F881
:10160000F8030D4600F00700814207D988F8F85327
:10161000D8F8F80300F00700A84277D120688107C6
:1016200017D5410705D5D8F8001041F4E051C8F8A6
:101630000010010705D5D8F8001041F46041C8F842
:101640000010D8F80010A26821F0F0011143C8F88A
:101650000010C00740D1D8F8F80300F00700854219
:1016600007D288F8F853D8F8F80300F00700A8422A
:101670004CD12068410707D5D8F80010E26821F462
:10168000E0511143C8F80010000708D5D8F8000051
:10169000216920F4604040EAC100C8F8000000F071
:1016A0007DF8D8F8001043F64822C1F30311C0F6C4
:1016B0000002515C40F2140220FA01F140F21000E5
:1016C000C2F200000068C2F200021160FFF7E6FEFD
:1016D0000020BDE8F08100BF6068811E022907D2AA
:1016E00058F8081C89015CBF0120BDE8F08111E0B9
:1016F000012807D158F8081C89035CBF0120BDE808
:10170000F08107E058F8081C890703D40120BDE8E0
:10171000F08100BFD8F8001021F003010843C8F899
:101720000000FFF78BFE064641F28837D8F800002C
:10173000616800F00C00B0EB810F8CD0FFF77EFEEB
:10174000801BB842F2D90320BDE8F08140F21400BA
:1017500043F60801C2F20000C4F202010068096801
:1017600043F65822C1F38221C0F60002515CC84002
:101770007047000040F2140043F60801C2F2000076
:10178000C4F202010068096843F65822C1F34231ED
:10179000C0F60002515CC8407047000010B543F627
:1017A0000404C4F202046168C1F3810142F2004002
:1017B000C0F2F400DFE801F002040A0210BD00BF2D
:1017C00041F20020C0F27A0010BD00BF216801F094
:1017D0003F02216823684902C3F3881106D4A1FBA4
:1017E00000010023FEF7F4FC07E000BF41F20020F7
:1017F000C0F27A004843B0FBF2F021680222C1F344
:10180000014102EB4101B0FBF1F010BD002804BF23
:10181000012070472DE9F04182B00446007843F67C
:101820000006C007C4F202060CD0B06800F00C003D
:10183000042840F081803068800303D56068002868
:1018400000F06881207880071BD5B06810F00C0F7D
:1018500009D0B06800F00C00082840F0878070685C
:10186000400200F183803068800703D5E0680128DA
:1018700040F050813068216920F0F80040EAC10052
:1018800030602078000713D4207840072AD4A56957
:10189000002D00F03A81B06800F00C00082840F0FC
:1018A000A580012D40F00E81012002B0BDE8F0813D
:1018B0006069002800F082800020C4F247200121E6
:1018C000C0F8801EFFF7BAFD054600BF706F8007A5
:1018D000DAD4FFF7B3FD401B0228F7D9032002B08A
:1018E000BDE8F081306C5FEAC0080AD400200190A6
:1018F000306C40F080503064306C00F080500190CB
:10190000019847F20007C4F200073868C00547D4C1
:10191000386840F480703860FFF790FD054600BFDE
:101920003868C0053CD4FFF789FD401B0228F7D971
:10193000032002B0BDE8F081B06800F00C00082878
:1019400003D1706840023FF576AF61683068B1F549
:10195000803F07D0B1F5A02F40F09A8040F480205E
:101960003060306840F4803030609AE0E0680028F1
:1019700040F20000C4F247205CD001210160FFF773
:101980005DFD0546306880073FF574AFFFF756FDF3
:10199000401B0228F6D9032002B0BDE8F08100BF49
:1019A000A168306F012905D0052955D140F0040008
:1019B0003067306F40F00100306756E00020C4F21D
:1019C00047200021C0F8801EFFF738FD054600BF04
:1019D000706F80077FF558AFFFF730FD401B02287E
:1019E000F6D9032002B0BDE8F08100BF0027C4F2A1
:1019F000472700203866FFF721FD022D05460DD14F
:101A00003068800140F18A80FFF718FD401B0228F2
:101A10004FF00300F4D902B0BDE8F08130688001D6
:101A200073D5FFF70BFD401B02284FF00300F5D9DB
:101A3000F1E700BF00210160FFF700FD054600BF90
:101A4000306880077FF51DAFFFF7F8FC401B0228C8
:101A50004FF00300F4D9DEE720F001003067306F6B
:101A6000002920F0040030677AD0FFF7E7FC054634
:101A700041F28837306F800700F18480FFF7DEFC89
:101A8000401BB842F6D9032002B0BDE8F08100BF88
:101A900020F4803030603068002920F480203060ED
:101AA0007AD0FFF7CBFC0546306880033FF5CAAE1D
:101AB000FFF7C4FC401B6428F6D9032002B0BDE840
:101AC000F08100BF7068E16900F480028A4221D190
:101AD000216A00F03F028A421CD147F6C071626A57
:101AE0000140B1EB821F15D1A16A4FF6FF73C90304
:101AF000994300F44032A1F580318A420AD1E16A6B
:101B000000F07060B0EB016F04D1002002B0BDE8BE
:101B1000F08100BF012002B0BDE8F08104F11C0596
:101B20002FCD084340EA8210D9034FF6FF7291434C
:101B3000A1F5803140EA05600843706001203866F5
:101B4000FFF77CFC044600BF30688001DDD4FFF75E
:101B500075FC001B02284FF00300F5D95BE700BFBE
:101B6000FFF76CFC054641F2883700BF306F8007F5
:101B700008D5FFF763FC401BB8424FF00300F5D9CE
:101B800049E700BFB8F1000F3FF581AE306C20F09F
:101B9000805030647BE600BFFFF750FC054600BF75
:101BA000306880037FF54EAEFFF748FC401B642889
:101BB0004FF00300F4D92EE7411E0020B0EB116F67
:101BC0001CBF012070474EF21002CEF2000251609D
:101BD0004EF62351CEF20001F0230B7007219060E6
:101BE0001160704770470000002804BF0120704753
:101BF00010B5242180F8411001680446CA6822F417
:101C00000052CA6000F008FB0020606484F84100C4
:101C100084F842002063606384F8400010BD000037
:101C200070470000B0B582B001680A68CC684B69A3
:101C300002F02F05202D04F0200505D125B102B0BA
:101C4000BDE8B04000F00ABE5FEA027C1EBF03F0B0
:101C5000010E04F4907313EB0E0341D1036BD50610
:101C600018D5012B16D114F0100313D000220192C5
:101C70000A6801924A680192019A496949064BD45F
:101C8000818DC28DC38D002B18BF914240F006821A
:101C900002B0B0BD13062DD514F080032AD090F801
:101CA0004120212AF4D18268B2F5805F03D1026914
:101CB000002A00F07982026A531C036212784A609B
:101CC000C28C013A1304C284E2D1C86820F08000BB
:101CD000C860C86840F04000C86002B0B0BD00BF36
:101CE000D30718BF14F4807340F0E280530700F16B
:101CF000E580EAE05206CBD514F04002C8D0CA68AD
:101D000022F04002CA60202180F8411002B0BDE8F4
:101D1000B04000F033BD00BFC26B11684B68858DC9
:101D200099B2002900F0B480A94280F0B180C38547
:101D3000D169B1F5807F00F0A080016851E8031FF0
:101D4000026821F4807142E80313DBB1016851E8B5
:101D5000031F026821F4807142E8031393B1016804
:101D600051E8031F026821F4807142E803134BB16C
:101D7000016851E8031F026821F4807142E80313EF
:101D8000002BDAD1016851E8051F026821F001013A
:101D900042E80513BBB3016851E8051F026821F052
:101DA000010142E8051373B3016851E8051F026899
:101DB00021F0010142E805132BB3016851E8051F2A
:101DC000026821F0010142E80513002BDAD11AE084
:101DD000016851E8051F026821F0400142E805133F
:101DE000DBB1016851E8051F026821F0400142E8BB
:101DF000051393B1016851E8051F026821F0400105
:101E000042E805134BB1016851E8051F026821F053
:101E1000400142E80513002BDAD1202180F842105E
:101E200000210163016851E8031F026821F01001DD
:101E300042E80313DBB1016851E8031F026821F097
:101E4000100142E8031393B1016851E8031F0268CF
:101E500021F0100142E803134BB1016851E8031F60
:101E6000026821F0100142E80313002BDAD1C16BA4
:101E700004460846FFF76CF8204602214163818D35
:101E8000C28D891A89B202B0BDE8B040FFF7AABE80
:101E90008D427FF4FDAED269B2F5807F7FF4F8AE5B
:101EA0000222426302B0BDE8B040FFF79BBE00BF14
:101EB000436C43F001034364530706D5BEF1000FA2
:101EC00003D0436C43F002034364930706D5BEF18D
:101ED000000F03D0436C43F004034364BCF1000FD4
:101EE00006D55EEA050303D0436C43F00803436460
:101EF000436C002B3FF4CCAE920605D525B10446C9
:101F000000F0ACFC216820464969426C01F04001B8
:101F100002F00802891800F0B98000BF016851E89A
:101F2000031F026821F4907142E80313BBB30168F8
:101F300051E8031F026821F4907142E8031373B360
:101F4000016851E8031F026821F4907142E803130D
:101F50002BB3016851E8031F026821F4907142E835
:101F60000313002BDAD11AE0016851E8051F02685B
:101F700021F0010142E80513DBB1016851E8051FBA
:101F8000026821F0010142E8051393B1016851E8AC
:101F9000051F026821F0010142E805134BB10168F9
:101FA00051E8051F026821F0010142E80513002BEA
:101FB000DAD1016B012924D1016851E8031F0268BD
:101FC00021F0100142E80313DBB1016851E8031F5F
:101FD000026821F0100142E8031393B1016851E84F
:101FE000031F026821F0100142E803134BB101689E
:101FF00051E8031F026821F0100142E80313002B8F
:10200000DAD1202180F8421000210163016849697A
:10201000490640F1C380016851E8051F026821F0BC
:10202000400142E80513DBB1016851E8051F026871
:1020300021F0400142E8051393B1016851E8051F02
:10204000026821F0400142E805134BB1016851E8F4
:10205000051F026821F0400142E80513002BDAD188
:10206000C16B002900F09A8042F65102C0F60002CE
:10207000044608460A65FEF7B3FF00283FF408AEA1
:10208000E06B016D02B0BDE8B04008470446FFF7C1
:10209000C7FD0020606402B0B0BD00BF891A00BF58
:1020A000026852E8032F036822F4907243E8032584
:1020B000BDB3026852E8032F036822F4907243E82C
:1020C000032575B3026852E8032F036822F4907267
:1020D00043E803252DB3026852E8032F036822F476
:1020E000907243E80325002DDAD11AE0026852E825
:1020F000052F036822F0010243E80525DDB10268DF
:1021000052E8052F036822F0010243E8052595B146
:10211000026852E8052F036822F0010243E8052512
:102120004DB1026852E8052F036822F0010243E82E
:102130000525002DDAD1202280F8422000220263FA
:10214000026852E8032F036822F0100243E80325D7
:10215000DDB1026852E8032F036822F0100243E861
:10216000032595B1026852E8032F036822F010029C
:1021700043E803254DB1026852E8032F036822F0BB
:10218000100243E80325002DDAD1022289B242630E
:1021900002B0BDE8B040FFF725BD00BF02B0BDE80A
:1021A000B040FFF73DBD00BF026A32F8023B6FF35B
:1021B0005F234B60026283E5002804BF0120704763
:1021C00010B5044690F8410028B9002084F840007A
:1021D000204600F077F8242084F841002068C16888
:1021E00021F40051C160204600F0B8FB206801696D
:1021F00021F490410161416921F02A014161C168E6
:1022000041F40051C16000202021606484F8411035
:1022100084F84210606310BD80B5006844F200414C
:10222000C4F20001884237D041F20041C4F20101FA
:1022300088421BD041F20001C4F20101884218BF5C
:1022400080BD43F64400C4F20200016821F0100191
:1022500001600020C4F202004FF4C061FEF7E6FE08
:102260002520BDE88040FFF75BB900BF43F644007E
:10227000C4F20200016821F0200101600020C4F2D4
:10228000020000F50060C021FEF7D0FE4720BDE847
:102290008040FFF745B900BF43F64400C4F2020096
:1022A00050F8041C21F4003140F8041C0020C4F252
:1022B00002000C21FEF7BAFE2620BDE88040FFF7A1
:1022C0002FB9000010B586B0006844F20042C4F295
:1022D000000200219042CDE90411CDE902110191E3
:1022E00046D041F20041C4F2010188421ED041F2C1
:1022F0000001C4F2010188426BD1002043F6300195
:102300000090C4F202014A69252442F010024A6199
:102310004A6902F010020092009A009008684FF497
:10232000C06240F001000860086837E0002043F612
:1023300030010090C4F202014A69472442F02002B1
:102340004A614A6902F020020092009A00900868EF
:10235000C02240F0040008600868082100F0040072
:10236000009000980020C4F2020000F500601DE01B
:1023700043F630000091C4F202000269262442F4C0
:1023800000320261026902F400320092009A009168
:1023900001680C2241F0010101600068072100F092
:1023A0000100009000980020C4F202000192022275
:1023B0000292002203920322CDE9042101A9FEF733
:1023C00059FF204600210022FFF7D2F82046FFF7F0
:1023D000BDF806B010BD000090F84230202B07D1A8
:1023E00000294FF0010318BF002A05D11846704795
:1023F00002231846704700BF002303638162222135
:102400008285C285436480F842100169006819B171
:10241000C16841F48071C160416941F001014161CD
:10242000C16841F02001C16018467047B0B582B064
:1024300040F2E011C2F2000188421DD040F2282192
:10244000C2F2000188423BD040F29811C2F2000172
:1024500088421CBF02B0B0BD40F21800C2F20000BA
:10246000411D40F29810C2F20000012202B0BDE806
:10247000B040FFF7B1BF00BFFEF7E0FF40F2180524
:10248000C2F20005A861E878A0F1300102298DF8B8
:10249000070039D840F29814C2F200040DF1070188
:1024A00020460122142300F09FF80A208DF8060030
:1024B0000DF1060120460122142300F095F871E089
:1024C000FEF7BCFF40F21805C2F20005A8612879AA
:1024D000A0F1300102298DF8040035D840F298149B
:1024E000C2F2000401A920460122142300F07CF866
:1024F0000A208DF803000DF1030120460122142368
:1025000000F072F866E000BF0D2801D00A283BD128
:10251000E888002846D040F29814EA88C2F2000405
:1025200040F25001C2F200012046322300F05CF874
:102530000A208DF805000DF1050120460122142323
:1025400000F052F82CE000BF0D2801D00A2833D14A
:10255000E88800283ED040F29814EA88C2F20004CD
:1025600040F25001C2F200012046322300F03CF854
:102570000A208DF802000DF10201204601221423E9
:1025800000F032F824E000BFE988FE2908D8E98885
:102590004A1CEA8040F25002C2F20002505401E0AC
:1025A0000020E88040F2E010E91CC2F200000122A5
:1025B000FFF712FF02B0B0BDE988FE2908D8E9880C
:1025C0004A1CEA8040F25002C2F20002505401E07C
:1025D0000020E88040F22820291DC2F200000122DC
:1025E000FFF7FAFE02B0B0BD2DE9F04381B004461A
:1025F00090F84100202809D100294FF0010018BFB0
:10260000002A07D101B0BDE8F08300BF022001B06D
:10261000BDE8F0830020606421201D460E4684F84A
:1026200041001746FEF70AFFA784E784A1688146A8
:10263000B1F5805F02D1206900285DD037460020C7
:10264000E28C2168002A5DD06A1C24D0002D4AD07B
:10265000804600BF0868000608D4FEF7EFFEA0EB36
:102660000900A8427AD82168C868F3E717B117F8BB
:10267000010B04E038F8020B00276FF35F2048607D
:10268000E08C0138E084E08C0028E3D13AE000BF20
:102690000A68120609D40A68120606D40A681206E5
:1026A0005CBF0A685FEA0262F2D51FB117F8012B1E
:1026B00005E000BF30F8022B00276FF35F224A606D
:1026C000E28C013AE284E28C002AE4D11AE000BFF5
:1026D00030F8022B00276FF35F224A60E28C013A48
:1026E000E284E28C72B10A68120635D5002FEFD071
:1026F00017F8012BF1E700BF00273046E28C216874
:10270000002AA1D1086840061ED42DB3681C14D13C
:10271000086840062AD40868400627D4086840069E
:1027200024D4086840064FF00000F1D50DE000BF4A
:102730002068C1680068400618D4FEF77FFEA0EB51
:102740000900A842F4D909E00020202184F84110B2
:1027500001B0BDE8F08300BFFEF770FE032020212A
:1027600084F8411001B0BDE8F08300BF00202021B3
:1027700084F8411001B0BDE8F0830000704700000C
:10278000FEE70000FEE70000FEE7000070470000E3
:1027900070470000FEF758BE70B592B006AC2046F8
:1027A0003021FDF75FFD002543F640000595CDE99A
:1027B0000355CDE901550095C4F2020001680226D7
:1027C00041F080510160006800F080500090009856
:1027D00047F200000095C4F20000016841F4404156
:1027E0000160006800F440400090009801200990CA
:1027F00010200A900E904FF4A8700F900420CDE99D
:10280000100020460696CDE90C65FEF7FFFF18B1D3
:1028100072B600BFFEE700BF0F20CDE901064FF4FE
:102820008050CDE9040501A802210395FEF7DCFEE6
:1028300010B172B6FEE700BF12B070BD4EF6885000
:10284000CEF20000016841F47001016070470000A1
:10285000806B0021C185FFF7E3B9000081B090F8DB
:102860004210222921D183680246B3F5805F09D145
:1028700052F8281F52F8183C002B63D003685B689D
:102880000AE000BF52F8281F13B90369002BF5D0E6
:1028900003685B6803F07F030B70116801311160FE
:1028A000C18D01390A04C18502D001B0704700BF53
:1028B0000168CA6822F02002CA60CA6822F48072E5
:1028C000CA604A6922F001024A61202180F8421060
:1028D00000214163026B012A3CD10163016851E888
:1028E000031F026821F0100142E80313DBB1016805
:1028F00051E8031F026821F0100142E8031393B16D
:10290000016851E8031F026821F0100142E8031337
:102910004BB1016851E8031F026821F0100142E841
:102920000313002BDAD101680A68D20606D500220B
:1029300000920A680092496800910099818D01B067
:10294000FFF750B9026852686FF35F2221F8022B3B
:102950008162A5E701B0FFF769BD0000B0B504468C
:10296000006804F108030ECB0569194325F44055AE
:102970002A4302616269E3691143C268194349F25B
:102980000C639A431143C1604169A26921F440710B
:1029900041F20043114340F48062C4F201039A42C1
:1029A000416103D1FEF7E6FE02E000BFFEF7CEFE76
:1029B000E1694FF69C7563681922C0F6FF75B1F5A1
:1029C000004FA0FB02011FD15A00DB0FFDF700FCF6
:1029D00048F21F51C5F2EB11A0FB01235A0905F182
:1029E000805302FB0300322303EBC000A0FB010174
:1029F0004FF4F87000EA111000EB0210C1F342111D
:102A0000084421688860B0BD9A009B0FFDF7E0FB89
:102A100048F21F51C5F2EB11A0FB01235A0902FB3A
:102A20000500322303EB0010A0FB0101F02000EAB7
:102A3000511000EB0210C1F3431108442168886073
:102A4000B0BD000040F29810C2F20000FFF7EAB8F3
:102A500040F2E010C2F20000FFF7E4B840F2282094
:102A6000C2F20000FFF7DEB8FEE70000F4B0002479
:102A7000C4F20204FEF7F6FCFFF78EFE002643F6D2
:102A800030001096CDE90E66CDE90C664C96C4F286
:102A900002000168002241F0040101600168202762
:102AA00001F004014C914C994C96016841F0800171
:102AB0000160016801F080014C914C994C960168CD
:102AC00041F001010160016801F001014C914C9954
:102AD0004C96016841F0020101600068202100F07D
:102AE00002004C904C982046FEF7A2FC4FF4005098
:102AF0000C904FF404100CADCDE90D0604F5006008
:102B00002946FEF7B7FB0C97012720462946CDE959
:102B10000D760F96FEF7AEFB40200C904FF444105C
:102B2000CDE90D0620462946FEF7A4FB172000211B
:102B30000022FEF71DFD1720FEF708FD40F2E0150C
:102B4000A4F5DE30C2F200054FF416510C2285E8E0
:102B500043002846C5E90366C5E90526EE61FFF78F
:102B60002BFB18B172B600BFFEE700BF40F2501059
:102B70000123A4F56041C2F20000C0F600734F9635
:102B8000CDE91266CDE91066CDE90E66CDE90C6699
:102B90004FF48032077680F82060C0E90A36C761BA
:102BA00080F8306080E84600C0E903664761FEF7C0
:102BB0002DF818B172B600BFFEE700BF07204E9097
:102BC00040F2501000260127C2F200004CA94C969A
:102BD0004D97FDF79BFE18B172B600BFFEE700BF30
:102BE0000120C0F20F00129040F25010C2F200001B
:102BF0000CA9CDE90C6710970E961396ADF84460BA
:102C00000F96FDF7D1FD18B172B600BFFEE700BF09
:102C100040F29816A4F57040C2F200064FF4E1317C
:102C200000274FF00C0886E883003046C6E903779A
:102C3000C6E90587F761FFF7BFFA18B172B600BFA2
:102C4000FEE700BF40F22820A4F56C41C2F200006C
:102C50004FF4165280E88600C0E90377C0E9058783
:102C6000C761FFF7A9FA18B172B600BFFEE700BF4F
:102C70006868B0F5165F08D02846FEF7B5FF4FF438
:102C8000165068602846FFF797FA7068B0F5E13F84
:102C900008D03046FEF7A8FF4FF4E13070603046B0
:102CA000FFF78AFA40F21809C2F2000940F2E01A6E
:102CB00009F10304C2F2000A504621460122FFF73F
:102CC0008BFB40F2282809F10406C2F200084046B6
:102CD00031460122FFF780FB40F2981509F1050704
:102CE000C2F20005284639460122FFF775FB40F283
:102CF0005010C2F20000FEF777F8FEF79FFBC9F80C
:102D00001000E8A150461A226423FFF76DFC5046DC
:102D100021460122FFF760FB404631460122FFF7C2
:102D20005BFB284639460122FFF756FB9FEDE58AFB
:102D30009FEDE59A40F2000B9FEDD7AA9FEDD7BA21
:102D40009FEDD7CADFEDD38ADFEDEAAADFEDE89A7F
:102D50004CAFC2F2000B09F12C000B9003E000BF56
:102D60000220FEF74FF9FEF769FB72B6B9F80610BC
:102D700041B3D9F81810401AB0F5C87F22D9B9F874
:102D8000066040F250013446B6F5807F28BF4FF40C
:102D900080740CA8C2F200012246FDF74AFA002016
:102DA000A9F8060062B676B128460CA9224664232B
:102DB000FFF71AFC2846C2A101226423FFF714FC86
:102DC00001E000BF62B6FEF739FBD9F81410411AD2
:102DD000B1F57A7F24D3C9F81400B9F8080099F83E
:102DE000004000EE100AB8EE400A80EE080AB9F87A
:102DF000086020EE090A10EE100AFDF73EFA41ECD9
:102E0000100B38466021B1A2234600968DED020BCF
:102E100000F08CF982B2284639466423FFF7E4FBC0
:102E20009BF8000000289BD0FEF708FBB9F80810BB
:102E3000B9F8081099ED0A1A00EE101AB8EE400A17
:102E400080EE080AB5EE401A8246F1EE10FA20EE46
:102E5000090A2DD199F8020089ED0A0AB0FA80F02A
:102E60004009B0EE401A21EE0A3AB4EE4B3AF1EEC8
:102E700010FAC8BFB0EE4B3AB4EE4C3AF1EE10FA8D
:102E8000B0EE4C2AC8BFB0EE432A8BED011A8BED91
:102E9000022A80B332EE281AB4EE410AF1EE10FA9B
:102EA0004FF0010038DA0B9A0121002030E000BF1A
:102EB00030EE410A20EE290A99F8020030EE010AAC
:102EC0009BED011A002889ED0A0A00F0DB8021EE53
:102ED0000A1AB4EE4B1AF1EE10FAC8BFB0EE4B1A54
:102EE000B4EE4C1AB0EE4C2AF1EE10FAC8BFB0EEB8
:102EF000412A8BED022A32EE2A1AB4EE410AF1EE93
:102F000010FA4FF0000007DD09F130020021012026
:102F100089F80210C2F800A0D9F82C3099F80020E6
:102F200099F80180D9F82010B8F1000F1AD0AAEB57
:102F3000010047F23051884248D9D9F82400AAEB61
:102F40000000B0F5966F4DD9284675A109223223AD
:102F5000FFF74AFB4FF0000889F80180C9F824A068
:102F600040E000BF013AAAEB010118BF0122B1F510
:102F7000FA5F4FF00001AAEB030388BF0121C82BC1
:102F80004FF0000338BF012318434FF0000808BF7B
:102F900012EA010026D1D9F82400AAEB0000B0F50E
:102FA000966F1FD9284654A124223223FFF71CFB19
:102FB000D9F820104FF0010889F80180C9F824A041
:102FC000AAEB010047F230518842B6D899F80200C6
:102FD00040B9D9F8300041F28931AAEB00008842AB
:102FE000ABD200BFD9F83400AAEB0000B0F57A7F6D
:102FF0007FF6B6AEC9F834A0D9F81C40B9F808007D
:1030000000EE100AB8EE400A80EE080A20EE090A27
:1030100010EE100AFDF731F941EC1D0BD9F828002C
:10302000FDF72BF941EC1F0BDBE90106FDF725F954
:1030300041EC1E0B3046FDF720F941EC100B99F8DE
:10304000020008AA99F8001082E8030143F6602202
:103050003846A021C0F6000223468DED00DB8DED41
:1030600002FB8DED04EB8DED060B00F05FF882B2F4
:1030700040F2E010C2F200003946C823FFF7B4FA6C
:103080006EE600BF30EE412A22EE2A2A32EE011A05
:103090000120E8E68FC2F5BC0AD7233F6666E63F0B
:1030A0000AD7A33E52454144594053544D20425201
:1030B000494447452B53454E534F52530D0A000088
:1030C0000A00000000F07F453333534053454E5310
:1030D0004F52405049523D2575404364535F7261E1
:1030E000773D257540563D252E33660D0A000000BC
:1030F000295C0F3E8FC2F53C4D4F44453A534F4C2F
:1031000049443B523A3235353B473A3134303B4201
:103110003A34303B4252493A3133300A0000000021
:103120004D4F44453A4F46460A0000000FB47CB567
:103130000C0009AD01D0611E00E00021CDE90001C5
:10314000064B6A462946089800F0DCF8002C02D0AD
:10315000009A002111707CBC5DF814FB333A000822
:1031600002E008C8121F08C1002AFAD17047704750
:10317000002001E001C1121F002AFBD170470000AE
:103180002DE9FF5F82B00021DDE90430020DDDF89A
:1031900040B0034318D044F61050A2F2FF3242432D
:1031A0001514119801281FD0A5EB0B00401C5FEAF5
:1031B000000A4FF000064E4FDFF83891B0465046F7
:1031C00015D5CAF1000413E0119801244AA301287F
:1031D00001D16FEA0B010298119AC0E90031C0E9F0
:1031E000024206B0BDE8F09FCBF10000DFE70446E5
:1031F0000021404A491842EB0450CDE9001012E08A
:10320000E00707D032463B4640464946FDF724F9E1
:103210008046894632463B4610461946FDF71CF962
:1032200006460F466410002CEAD1DDE90401DDE911
:103230000023BAF1000F06DAFDF70EF942464B46BD
:10324000FDF70AF905E0FDF779F942464B46FDF72F
:1032500075F904460E460022284BFDF7F7F903D80E
:103260004FF0FF30014607E00022254B2046314653
:10327000FDF74BF8FDF7D1F9102409E0002C0ADB2B
:103280000A220023FCF7A4FF039B30321A55641E68
:1032900050EA0102F2D1641C039AC4F111031444F0
:1032A000119A012A03D0012208430DD10AE00843F4
:1032B00004D000204FF0110B119072E7A3EB0B0527
:1032C0006D1E0DE05B4504DD4FF0000205F10105C8
:1032D00004E003DA4FF00002A5F10105002AECD06A
:1032E00002981199C0E90231C0E9004579E7000070
:1032F000000014400000F03F300000000000F043E8
:103300000000E03F2DE9FF4F95B09B4689460646F9
:1033100000250FE2252877D100242746F84A01210D
:10332000059400E0044316F8013F203B01FA03F046
:103330001042F7D130782A2811D06FF02F0330785F
:10334000A0F13002092A16D8059A44F0020402EBD3
:10335000820203EB42021044761C0590EFE759F815
:10336000042B0592002A03DA504244F400540590DD
:1033700044F00204761C30782E2816D116F8010F7E
:1033800044F004042A280DD06FF02F023078A0F109
:103390003003092B09D807EB870302EB4303C71857
:1033A000761CF3E759F8047B761C30786C280FD034
:1033B00006DC4C2817D068280DD06A2814D104E008
:1033C000742810D07A280FD10DE044F400140AE0DC
:1033D00044F4801401E044F440147278824202D133
:1033E00004F58014761C761C307866280BD013DC2C
:1033F000582877D009DC002875D04528F6D0462813
:10340000F4D047281AD19DE118E0632835D064280C
:1034100079D0652812D195E1702873D008DC67282F
:10342000F1D069286FD06E280DD06F2806D1B5E095
:1034300073282CD0752875D0782874D05A461799DF
:1034400090476D1C75E1C4F30250022809D003288F
:103450000DD0D9F8001004280DD00D6009F1040931
:1034600067E1D9F80010EA17C1E90052F6E7D9F888
:1034700000100D80F2E70D70F0E719F8041B8DF8CD
:10348000001000208DF80100EA46012003E059F801
:1034900004AB4FF0FF3061074FF0000102D40DE0A4
:1034A00008F101018846B9420FDA8045F8DB1AF8C5
:1034B00008100029F4D108E008F101018846814292
:1034C000FADB1AF808100029F6D105985B46A0EB44
:1034D000080721463846179A00F094FA284400EB72
:1034E000080507E04DE029E10DE01AF8010B5A4606
:1034F00017999047B8F10108F7D25B462146384644
:10350000179A13E142E00A220092C4F302524FF0EC
:10351000000A022A08D059F804CB032A4FEAEC71BA
:103520000AD00DE029E02AE009F1070121F00702A5
:10353000F2E802C1914609E00FFA8CFC4FEAEC7107
:10354000042A03D14FFA8CFC4FEAEC71002907DA08
:103550000A460021DCF1000C61EB02012D2202E0A1
:10356000220504D52B228DF80420012203E0E20776
:1035700001D02022F7E7904659E00A2102E010220C
:103580000DE010214FF0000A00910BE010224FF0E7
:10359000000A44F004040827009203E008224FF0D8
:1035A000000A0092C4F30252022A05D059F804CB53
:1035B0000021032A08D009E009F1070121F00702E0
:1035C000F2E802C1914605E01FFA8CFC042A01D101
:1035D0000CF0FF0C4FF00008220728D5702806D009
:1035E000009B83F0100353EA0A0305D00EE040224B
:1035F0008DF80420012208E05CEA010206D03022A6
:103600008DF804208DF8050002229046009B83F07F
:10361000080353EA0A030AD15CEA010201D16207F6
:1036200005D530228DF804204FF001087F1E582860
:1036300004D034A003900EA802900DE036A0F9E764
:1036400053466046009AFCF7C3FD84460398825CAB
:103650000298401E029002705CEA0100F0D10298CC
:1036600006A9081A00F1200A600702D524F4803464
:1036700000E00127574502DDA7EB0A0000E000202B
:1036800000EB0A01009005984144401A0590E003C0
:1036900006D45B462146179A059800F0B3F9054415
:1036A000002706E001A85A46C05D179990476D1C97
:1036B0007F1C4745F6DBE0030CD55B462146179A95
:1036C000059800F09FF9054404E030205A46179908
:1036D00090476D1C0099481E00900029F5DC08E019
:1036E000029802995A460078491C0291179990470E
:1036F0006D1CBAF10001AAF1010AF1DC65E10000DC
:1037000009280100303132333435363738396162B7
:10371000636465660000000030313233343536377B
:1037200038394142434445460000000000F058F952
:103730000544761C307800287FF4ECAD19B028469B
:10374000BDE8F08F620700D4062709F1070222F0D6
:10375000070CFCE80223E14603F000485FEA080C8E
:1037600002D00FF2702C0DE05FEA045C02D50FF27C
:10377000682C07E05FEAC47C02D00FF2602C01E005
:10378000AFF2700C4FF0FF3823F00043CDF850C07B
:1037900065280CD006DC452809D046281DD04728CE
:1037A0003DD13DE0662818D067287ED138E0002161
:1037B000112F01DB112000E0781CCDE9000106A9E2
:1037C0000EA8FFF7DDFCDDE90F010E9A0391002141
:1037D000009207F1010A04914DE04FF0004000977C
:1037E000CDE9011006A90EA8FFF7CAFCDDE90F021A
:1037F00003920E9B11990022DDF80CA00093049215
:1038000011B9791C00EB010AB7EB0A0004D4C0F12E
:10381000FF3007F1010A0490AAEB0700019044E091
:10382000012F00DA01270021112F01DD112000E016
:103830003846CDE9000106A90EA8FFF7A1FCDDE995
:103840000F010E9A0391002104910092BA462107BC
:103850000CD40399514500DA8A46BAF1010F05DD0F
:10386000009AAAF10101515C302908D0B84202DA6D
:1038700010F1040F06DA0121CDE9011015E0AAF1DB
:103880000101E9E7002805DC049901440491AAEB51
:10389000000102E0411C514500DD8A460499401AAE
:1038A000401C01904FF000400290200704D4019882
:1038B000504501DBCDF8048000208DF84F000298C0
:1038C0000DF14F07B0F1004F25D02B200E9002983C
:1038D0004FF0020800280CDA404202902D200E9092
:1038E00007E00A210298FCF7DBFC3031029007F870
:1038F000011DB8F10001A8F10108F2DC02980028CE
:10390000EFD1791E0E980870307800F0200040F05A
:10391000450007F8020D12A8C01B00F10708149813
:10392000007800B1012000EB0A01019801EBE07181
:1039300005984144401A401E0590E00306D45B46BA
:103940002146179A059800F05DF805441498007810
:1039500018B15A46179990476D1CE00324D55B4671
:103960002146179A059800F04DF805441CE004988C
:10397000002807DBDDE90301884203DD0098405C95
:10398000179901E0179930205A469047049805F19D
:103990000105401C04900198401E019004D12E2086
:1039A0005A46179990476D1CBAF10001AAF1010A15
:1039B000DDDC05E017F8010B5A46179990476D1C9E
:1039C000B8F10001A8F10108F4DC5B462146179A22
:1039D0000598ABE62D0000002B0000002000000041
:1039E0002DE9F041044600251E461746880404D4FC
:1039F00005E039462020B0476D1C641EF9D52846E5
:103A0000BDE8F0812DE9F041044600251E469046B0
:103A1000C80301D5302700E02027880404D505E03D
:103A200041463846B0476D1C641EF9D52846BDE8AE
:103A3000F0814A68002A06D00A68531C0B60107097
:103A40004868401E48607047000000000000000009
:103A50000102030406070809000000000102030434
:103A60004155544F20686974733D256C7520763D2F
:103A7000252E326620656D613D252E3266206261FD
:103A800073653D252E3266207468723D252E3266A0
:103A9000206461726B3D2564207069723D2564204D
:103AA0006F6E3D25640D0A00C83A00080000002032
:103AB0001800000060310008E03A000818000020FB
:103AC0006006000070310008010000000000803F27
:103AD000CDCC4C3F01000000100000000024F40099
:040000050800019955
:00000001FF
